:020000040800F2
:1000000000000220B9020008BF020008C302000875
:1000100035030008390300088103000800000000D0
:10002000000000000000000000000000C9030008FC
:10003000CD03000800000000D1030008051D0008E2
:10004000E5030008E5030008E5030008E5030008F0
:10005000E5030008E5030008E5030008E5030008E0
:10006000E5030008E5030008E5030008E5030008D0
:10007000E5030008E5030008E5030008E5030008C0
:10008000E5030008E5030008E5030008E5030008B0
:10009000E5030008E5030008E5030008E5030008A0
:1000A000E5030008E5030008E5030008E503000890
:1000B000E5030008E5030008E5030008E503000880
:1000C000E5030008E5030008E5030008E503000870
:1000D000E5030008E5030008E5030008E503000860
:1000E000E5030008E5030008E5030008E503000850
:1000F000E5030008E5030008E5030008E503000840
:10010000E5030008E5030008E5030008E50300082F
:10011000E5030008E5030008E5030008E50300081F
:10012000E5030008E5030008E5030008E50300080F
:10013000E5030008E5030008E5030008E5030008FF
:10014000E5030008E5030008E5030008E5030008EF
:10015000E5030008E5030008E5030008E5030008DF
:10016000E5030008E5030008E5030008E5030008CF
:10017000E5030008E5030008E503000800000000AF
:10018000E5030008E503000800B583B001F066FB55
:10019000384B394A1360394A1360394906E052F83E
:1001A000041B43F8041B9842F9D86146354B994229
:1001B00005D20A684B6801F10C0C8868F3E72E4BF6
:1001C0001A68314B9A4200D0FEE72C4B1A682F4B2D
:1001D0009A42F9D1274B2E4A13602E4A13602E4AB9
:1001E00000E002462D4B9A4209D2104650F8083BD7
:1001F00051689942F5D9002243F8042BF9E7244BC2
:100200001B6813B9234B1B6803B1FEE701F0DAFB4F
:10021000694601A801F01CF8214C224BE41AA410F5
:10022000002504E01F4B53F8253098470135AC42B8
:10023000F8DC1D4C1D4BE41AA410002504E01B4BF8
:1002400053F8253098470135AC42F8DC0099019805
:1002500001F072FC0546164C164BE41AA41004E09B
:10026000013C144B53F824309847002CF8DC284606
:1002700000F08AFFBABADECA000000207400002035
:10028000E8030008000400087856341232547698C7
:10029000780000207C020020000400081004000800
:1002A00010040008100400081404000810040008DA
:1002B000140400081404000808B5FFF765FF00BE29
:1002C000FEE71EF0040F0CBFEFF30880EFF3098088
:1002D0007146414A10472DE9F04182B004460D466F
:1002E000124B5F6BD3F838809E6A1B6B13F0020FC2
:1002F00003D00E4BDB6A002B0BDB0D4801F066F9D7
:10030000009543463A463146204601F0ADF900BE1D
:10031000FEE74BF6AB6101F021FA0028EDD0034B6C
:100320004FF00042DA6202B0BDE8F08100ED00E07B
:100330004C35000800BEFEE71EF0040F0CBFEFF3C3
:100340000880EFF309807146244A10472DE9F041F7
:1003500082B004460D46084B5F6BD3F838809E6A26
:10036000064801F033F9009543463A4631462046A7
:1003700001F07AF900BEFEE700ED00E05C35000810
:100380001EF0040F0CBFEFF30880EFF309807146F5
:10039000134A10472DE9F04182B004460D46084B40
:1003A0005F6BD3F838809E6A064801F00FF900951C
:1003B00043463A463146204601F056F900BEFEE774
:1003C00000ED00E06835000800BEFEE700BEFEE775
:1003D00000BEFEE770470000D70200084D0300088A
:0803E0009503000800BEFEE7D2
:1003E800C83700080000002078000020C83700083F
:1003F800000000100000001078000020800200209B
:0C0408000000001000000010951C00080F
:1004200010B504460E4B18784FF47A73B3FBF0F313
:100430000C4A1068B0FBF3F000F0A8F868B90F2C74
:1004400001D901200AE0002221464FF0FF3000F0E0
:1004500057F8054B1C60002000E0012010BD00BFD4
:10046000040000200C0000200800002008B50B4B01
:100470001A6842F400721A601A6842F480621A60C4
:100480001A6842F480721A60032000F01BF80F20F3
:10049000FFF7C6FF01F005FC002008BD003C02404C
:1004A000034A1168034B1B780B441360704700BF6D
:1004B0007C00002004000020014B1868704700BF3A
:1004C0007C00002010B50446C31E042B0FD80A4A36
:1004D000D36823F4E0631B041B0C240204F4E064DF
:1004E000234343F0BF6343F40033D36010BD922134
:1004F000024801F06FFAEAE700ED00E06C33000813
:1005000070B505460C4616460F2A25D80F2C28D85C
:100510001B4BDB68C3F30223C3F10701042928BF87
:1005200004211A1D062A21D9033B4FF0FF3202FA9B
:1005300001F124EA01049C4002FA03F326EA0306CF
:100540003443002D14DB2401E4B205F1604505F5C8
:10055000614585F8004370BDAA210A4801F03AFAC6
:10056000D4E7AB21074801F035FAD1E70023DCE7F7
:1005700005F00F052401E4B2034B5C55EBE700BF27
:1005800000ED00E06C33000814ED00E00138B0F13C
:10059000807F0BD24FF0E0235861054AF02182F8AA
:1005A00023100020986107221A61704701207047CC
:1005B00000ED00E010B50446042800D040B9042C3A
:1005C0000CD04FF0E022136923F00403136110BD37
:1005D00040F2C911054801F0FDF9F0E74FF0E022C3
:1005E000136943F004031361F1E700BF6C330008A3
:1005F0002DE9F04383B007460E46374B984223D08F
:1006000003F5806398421FD003F5806398421BD0A6
:1006100003F58063984217D003F58063984213D0A6
:1006200003F5806398420FD003F5806398420BD0A6
:1006300003F58063984207D003F58063984203D0A6
:10064000B321264801F0C6F933689AB212B11B0CE7
:100650001B041BB1B421214801F0BCF97368012BC4
:100660001ED9112B1CD0022B1AD0122B18D01C4AC9
:10067000934215D002F58012934211D002F58012F8
:1006800093420DD0A2F5F812934209D002F58012E0
:10069000934205D002F58012934201D0032B04D17E
:1006A000B368022B06D8002452E0B5210B4801F0B4
:1006B00091F9F5E7B621094801F08CF9F3E7C82173
:1006C000064801F087F959E0E021044801F082F979
:1006D00097E0072307E000BF00000240A0330008B6
:1006E0000000111000238B4003430232794941F886
:1006F0002230794B1A686FEA080322EA0801706811
:1007000010F4803F01D048EA0201734A1160526838
:1007100003EA0201706810F4003F01D048EA0201C8
:100720006D4A5160926803EA0201706810F4801FFC
:1007300001D048EA0201684A9160D26813407168AA
:1007400011F4001F01D048EA0203634AD360013468
:100750000F2C00F2BB800125A540336803EA050891
:1007600035EA0303F3D173685A1E012A03D9112B0A
:1007700001D0122B15D1F368032BA0D8BA68610001
:1007800003238B4022EA0302F3688B401343BB60D0
:100790007A6822EA05027368C3F30015A540154381
:1007A0007D60FA6865000323AB406FEA030922EA23
:1007B0000302B368AB401343FB607368022B01D0A4
:1007C000122B2ED13369E3B1092B1AD0012B18D08B
:1007D000022B16D0032B14D0042B12D0052B10D0D3
:1007E000062B0ED0072B0CD0082B0AD00A2B08D0D2
:1007F0000B2B06D00C2B04D00D2B02D00F2B7FF42B
:1008000063AFE208083257F8220004F007039900AA
:100810000F238B4020EA030033698B40034347F8E2
:1008200022303B6809EA0309736803F00303AB4015
:1008300043EA09033B60736813F0805F87D00023AD
:100840000193264B5A6C42F480425A645B6C03F469
:1008500080430193019BA208911C1E4B53F8210079
:1008600004F0030399000F238B4020EA03001C4B84
:100870009F423FF437AF03F580639F421AD003F5E0
:1008800080639F4218D003F580639F4216D003F522
:1008900080639F4214D003F580639F4212D003F51A
:1008A00080639F4210D003F580639F423FF411AFF5
:1008B000082318E7012316E7022314E7032312E7AE
:1008C000042310E705230EE706230CE703B0BDE879
:1008D000F08300BF00380140003C01400038024076
:1008E00000000240002800F0588270B582B0044633
:1008F00003680F2B39D8236813F0010F4DD06368BC
:100900002BB1B3F5803F02D0B3F5A02F32D1804B8D
:100910009B6803F00C03042B36D07D4B9B6803F0DF
:100920000C03082B2BD06368B3F5803F5FD0B3F581
:10093000A02F62D0764B1A6822F480321A601A68AF
:1009400022F480221A606368002B60D0FFF7B4FDA8
:1009500005466F4B1B6813F4003F1ED1FFF7ACFD3B
:10096000401B6428F5D903201EE2E821694801F004
:1009700031F8C0E7ED21674801F02CF8C7E7644B78
:100980005B6813F4800FCED0614B1B6813F4003FFB
:1009900003D06368002B00F00282236813F0020F7B
:1009A00066D0E368012B41D823691F2B44D8584BEC
:1009B0009B6813F00C0F4AD0554B9B6803F00C0357
:1009C000082B3FD0E368002B77D0534B01221A60ED
:1009D000FFF772FD05464E4B1B6813F0020F63D103
:1009E000FFF76AFD401B0228F5D90320DCE1484AE5
:1009F000136843F480331360A5E7454B1A6842F44B
:100A000080221A601A6842F480321A609BE7FFF76E
:100A100053FD05463E4B1B6813F4003FBDD0FFF766
:100A20004BFD401B6428F5D90320BDE140F21F11A6
:100A3000384800F0CFFFB7E74FF49071354800F029
:100A4000C9FFB4E7324B5B6813F4800FBAD1304B67
:100A50001B6813F0020F03D0E368012B40F0A18163
:100A60002B4A136823F0F803216943EAC10313609A
:100A7000236813F0080F51D06369012B2FD86369E5
:100A80009BB3254B0122C3F8802EFFF715FD0546C9
:100A90001F4B5B6F13F0020F40D1FFF70DFD401BA2
:100AA0000228F5D903207FE1194A136823F0F803DF
:100AB000216943EAC1031360DAE7174B00221A6089
:100AC000FFF7FAFC0546124B1B6813F0020FCFD05C
:100AD000FFF7F2FC401B0228F5D9032064E14FF434
:100AE000B0710C4800F076FFC9E70B4B0022C3F849
:100AF000802EFFF7E1FC0546054B5B6F13F0020FFC
:100B00000CD0FFF7D9FC401B0228F5D903204BE19C
:100B100000380240D033000800004742236813F039
:100B2000040F7CD0A368012B01D9052B38D1A34B2E
:100B30001B6C13F0805F39D1002301939F4B1A6C1B
:100B400042F080521A641B6C03F080530193019BA6
:100B500001259B4B1B6813F4807F29D0A368012BD0
:100B60003AD0052B3ED0954B1A6F22F001021A673E
:100B70001A6F22F004021A67A368002B3CD0FFF71B
:100B80009BFC06468D4B1B6F13F0020F45D1FFF700
:100B900093FC801B41F288339842F3D9032003E190
:100BA0004FF4C671874800F015FFC0E70025D0E775
:100BB000834A136843F480731360FFF77DFC064695
:100BC0007F4B1B6813F4807FC8D1FFF775FC801B37
:100BD0000228F5D90320E7E0784A136F43F00103B8
:100BE0001367C9E7754B1A6F42F004021A671A6F50
:100BF00042F001021A67BFE7FFF75EFC06466F4B43
:100C00001B6F13F0020F08D0FFF756FC801B41F258
:100C100088339842F3D90320C6E0002D3BD1A36965
:100C2000022B3ED8A369002B00F0BD80634A926876
:100C300002F00C02082A00F09080022B79D1E369BF
:100C400013B1B3F5800F32D1236A3F2B35D8636AD5
:100C5000323BB3F5BF7F36D8A36A022B05D0042BF5
:100C600003D0062B01D0082B33D1E36A023B0D2BB6
:100C700035D8554B00221A66FFF71EFC05464F4B30
:100C80001B6813F0007F30D0FFF716FC401B0228D2
:100C9000F5D9032088E0494A136C23F0805313648C
:100CA000BDE740F2CF11474800F094FEBAE74FF499
:100CB000EC71444800F08EFEC6E740F2D91141487D
:100CC00000F088FEC3E74FF4ED713E4800F082FE6D
:100CD000C2E740F2DB113B4800F07CFEC5E74FF471
:100CE000EE71384800F076FEC3E7E369226A1343E9
:100CF000626A43EA8213A26A5208013A43EA024353
:100D0000E26A43EA02632D4A53602F4B01221A66BE
:100D1000FFF7D2FB0446294B1B6813F0007F06D176
:100D2000FFF7CAFB001B0228F5D903203CE0002096
:100D30003AE0254B00221A66FFF7BEFB04461F4B24
:100D40001B6813F0007F06D0FFF7B6FB001B0228DC
:100D5000F5D9032028E0002026E0012B26D0174BF0
:100D60005B6803F48001E269914221D103F03F0204
:100D7000216A8A421ED1616A47F6C0721A408A42CD
:100D80001AD103F44032A16A8A421FD103F0706382
:100D9000E26A93421CD1002006E001207047012046
:100DA00002E0012000E0002002B070BD0120FBE75E
:100DB0000120F9E70120F7E70120F5E700380240BC
:100DC00000700040D0330008000047420120EBE7EC
:100DD0000120E9E708B5314B9B6803F00C03042BB5
:100DE00057D0082B57D12D4B5A6802F03F025B6851
:100DF00013F4800F2AD0294B5968C1F3881C4FEA9D
:100E00004C11B1EB0C006EEB0E0E4FEA8E1343EA61
:100E100090638101091A63EB0E03DB0043EA51730F
:100E2000C90011EB0C0C43F10003590200234FEAF7
:100E30004C2041EADC5100F06BFF184B5B68C3F3B8
:100E4000014301335B00B0FBF3F025E0134B59681D
:100E5000C1F3881C4FEA4C11B1EB0C006EEB0E0E87
:100E60004FEA8E1343EA90638101091A63EB0E0384
:100E7000DB0043EA5173C90011EB0C0C43F1000392
:100E8000990200234FEA8C2041EA9C5100F040FF78
:100E9000D3E7034800E0034808BD00BF0038024024
:100EA00000127A000024F400002800F0F78070B5EA
:100EB0000D4604460368013B0E2B6BD8072D6FD8F7
:100EC0007A4B1B6803F00F03AB4208D2EBB2774AB0
:100ED0001370136803F00F03AB4240F0E180236806
:100EE00013F0020F29D013F0040F04D0704A936856
:100EF00043F4E0539360236813F0080F04D06C4A66
:100F0000936843F460439360A3687BB1802B0DD05A
:100F1000902B0BD0A02B09D0B02B07D0C02B05D025
:100F2000D02B03D0E02B01D0F02B3FD1604A936847
:100F300023F0F003A1680B439360236813F0010FC3
:100F40004ED06368032B37D86368012B3AD09A1EC2
:100F5000012A3ED9564A126812F0020F00F0A28010
:100F600053498A6822F0030213438B60FFF7A4FA07
:100F700006464F4B9B6803F00C036268B3EB820F8D
:100F80002ED0FFF799FA801B41F288339842F0D9AE
:100F9000032076E040F25121464800F01BFD8DE72A
:100FA00040F25221434800F015FD89E740F27521D7
:100FB000404800F00FFDB9E74FF41F713D4800F0C5
:100FC00009FDC1E73A4A126812F4003FC8D1012076
:100FD00057E0374A126812F0007FC1D1012050E07B
:100FE000324B1B6803F00F03AB4207D9EAB22F4B19
:100FF0001A701B6803F00F03AB4255D1236813F03E
:10100000040F14D0E3685BB1B3F5805F08D0B3F58B
:10101000A05F05D0B3F5C05F02D0B3F5E05F31D17A
:10102000234A936823F4E053E1680B4393602368F9
:1010300013F0080F15D023695BB1B3F5805F08D0BA
:10104000B3F5A05F05D0B3F5C05F02D0B3F5E05FA4
:101050001ED1174A936823F46043216943EAC10310
:101060009360FFF7B7FE124B9B68C3F30313124A5A
:10107000D35CD840114B1860114B1868FFF7D0F9BA
:10108000002070BD40F2BA210A4800F0A3FCC7E777
:1010900040F2C121074800F09DFCDAE701207047CB
:1010A0000120EEE70120ECE70120EAE7003C0240E6
:1010B00000380240D0330008783500080C000020CA
:1010C00008000020014B1868704700BF0C0000208A
:1010D00008B503460C4A12685AB10B4A106803332C
:1010E00023F003030344094A934206D8064A1360D7
:1010F00008BD054A06491160EFE700F08FFF0C2399
:1011000003604FF0FF30F3E78000002000FC012077
:101110008002002030B51324002520462946ABBEAE
:101120000446204630BD38B5044600F077FF05463A
:10113000FFF7F0FF2860204638BDB0F1FF3F00D038
:10114000704708B5FFF7EFFF08BD000010B5044673
:101150000B4B186808B1836B5BB1132C0CD8094B8F
:1011600053F83430B3F1FF3F08D0064800EBC40019
:1011700010BD00F0B1FFF0E70020F9E70020F7E72D
:10118000100000200C01002000B530B9044D1824D7
:1011900020462946ABBE0446FEE7024DF7E700BFF6
:1011A00026000200230002002DE9F04184B0234F05
:1011B00001970326039600230293012401AD2046E4
:1011C0002946ABBE80461E4BC3F8008001970396AC
:1011D0000423029320462946ABBE8046194BC3F830
:1011E0000080019703960823029320462946ABBE50
:1011F0000446154B1C60B4F1FF3F01D000230AE008
:10120000104B1A68104B1A60F8E7104A4FF0FF3184
:1012100042F833100133132BF7DD0C4B084A1268E8
:101220001A6000225A60074909689960DA60064925
:10123000096819615A6104B0BDE8F0810034000802
:101240000401002008010020000100200C01002002
:101250002DE9F04383B0814688462A4B00934F2303
:10126000019315276C4638462146ABBE0746AFBBF7
:10127000244B002283F84F20009A3E463C463D46D0
:1012800007E001321E46204B43F82520013501249A
:10129000013292F90030FBB164B91C49595600295A
:1012A000F6DB092BF4D0082D16DC222BE9D0272BF6
:1012B000E9D1E6E736B19E42EAD1002313703E46FB
:1012C0003C46E5E711495956002901DB092BDFD1DE
:1012D000002313703446DBE73DB900E00025094BDD
:1012E00000221A70084A13600135074B002243F8A8
:1012F0002520C9F80050C8F80030FFF755FF03B0AB
:10130000BDE8F08384000020D400002028360008C7
:1013100030B585B0019002910392062401AD2046BC
:101320002946ABBE04462046FFF707FF05B030BD97
:1013300070B50D461446FFF709FF68B10646224610
:1013400029460068FFF7E4FFB0F1FF3F03D0201A01
:1013500073680344736070BD00F060FE092303608E
:101360004FF0FF30F7E7F0B583B00C461546FFF7B6
:10137000EDFEC0B10646022D1CD8012D21D0022D54
:1013800029D03368009301940A256F4628463946D0
:10139000ABBE05462846FFF7D0FE00282BDB746065
:1013A000204603B0F0BD00F039FE092303604FF082
:1013B000FF30F6E700F032FE162303604FF0FF30F7
:1013C000EFE74368E418DCD500F028FE162303603D
:1013D0004FF0FF30E5E7036800930C256F46284681
:1013E0003946ABBE05462846FFF7A7FEB0F1FF3FE2
:1013F000D7D00444C5E74FF0FF30D2E708B5FFF778
:10140000B2FF08BD30B585B001900291039205246A
:1014100001AD20462946ABBE04462046FFF78DFEAF
:1014200005B030BD70B50D461446FFF78FFE70B1A4
:101430000646224629460068FFF7E4FF031E11DB3B
:10144000E01A7268024472609C4207D070BD00F0DE
:10145000E5FD092303604FF0FF30F7E70020FFF7B9
:1014600062FEF3E74FF0FF30F0E730B583B0019054
:10147000022401AD20462946ABBE04462046FFF7B4
:101480005CFE03B030BD000038B50446FFF75EFED9
:1014900080B10546601E012804D80C4B9A681B6970
:1014A0009A420ED02868FFF7E0FF10B94FF0FF33E3
:1014B0002B6038BD00F0B2FD092303604FF0FF3010
:1014C000F7E74FF0FF332B600020F2E70C0100201C
:1014D00070B50C46FFF73AFEA8B10646636843F4C0
:1014E000005363604FF48063A3640C2528463146A3
:1014F000ABBE05462846FFF720FEB0F1FF3F01D006
:101500002061002070BD00F089FD092303604FF0C9
:10151000FF30F7E738B505460C4658220021204633
:1015200000F0E9FE21462846FFF7D2FF38BD38B566
:10153000FFF70CFE80B10546092420462946ABBEC4
:1015400004462046012C06D000F068FD0446FFF753
:10155000E1FD2060002038BD00F060FD092303603C
:101560000020F8E72DE9F04385B004460F464356C6
:1015700033BB042528462146ABBE0446384605B099
:10158000BDE8F08314F901CB04AA1A4402F810CC88
:101590000133AB42F6D304AA1344002203F8102C03
:1015A0004FF00408E94640464946ABBE8046761BEC
:1015B000002EE3D03546102E28BF10250023E8E783
:1015C0000E46F5E708B5FFF7CDFF08BD0FB400B52F
:1015D00083B004AB53F8042B01938021074801F03A
:1015E0007BF8002804DC03B05DF804EB04B070471E
:1015F00001460248FFF7E6FFF5E700BFAC01002017
:1016000010B5044600F0ADFF01462046FFF7DAFFB3
:1016100001210248FFF7D6FF10BD00BFC834000803
:1016200070B505460E4601460B48FFF7CFFF002474
:1016300005E056F824100948FFF7C8FF0134AC4212
:1016400005DA002CF5D00648FFF7C0FFF1E70548A2
:10165000FFF7BCFF70BD00BF043400082034000851
:101660001C34000828340008F8B504460D46174617
:101670001E462748FFF7AAFF21682648FFF7A6FF66
:1016800061682548FFF7A2FFA1682448FFF79EFF85
:10169000E1682348FFF79AFF21692248FFF796FF88
:1016A00061692148FFF792FFA1692048FFF78EFF8B
:1016B000E1691F48FFF78AFF1E48FFF787FF2946A9
:1016C0001D48FFF783FF1D4CE16A1D48FFF77EFFB1
:1016D000216B1C48FFF77AFFE16B1B48FFF776FF91
:1016E00015F0800F0AD115F4004F0CD11748FFF701
:1016F0006DFF06991648FFF769FFF8BD3946154892
:10170000FFF764FFEFE731461348FFF75FFFEDE7B0
:1017100030340008403400085034000860340008B9
:10172000703400088034000890340008A0340008A9
:10173000B0340008C0340008CC34000800ED00E0EC
:10174000DC340008EC340008FC3400082C350008B8
:10175000343500080C3500081C35000838B583699D
:101760001B888B4201D0002038BD044603684568C1
:10177000013B302B69D8DFE803F046211C1C5E30AA
:10178000332D1919681919191919361924681927C7
:1017900068396868686868686868686868686868F8
:1017A0006868686868686868681919004FF0FF33EE
:1017B0000360A3690233A3610120D5E7002303601E
:1017C000F7E700230360F4E700232B606B60AB6056
:1017D000EB60EEE700230360EBE7AB680360E8E74C
:1017E00000230360E5E700230360E2E7BFF34F8FC8
:1017F0001749CA6802F4E062164B1343CB60BFF38B
:101800004F8F00BFFDE71449286800F0A0FE40B9E3
:101810006B6813B901232360CBE7042B05D0082B99
:1018200006D04FF0FF332360C3E702232360C0E7F5
:1018300003232360BDE72B68023B012B02D9AB6871
:101840000360B6E700230360B3E700208CE700BF26
:1018500000ED00E00400FA050034000808B500F0CF
:1018600009F8024A024B9A6008BD00BF0000000858
:1018700000ED00E0024B4FF000629A60704700BF3D
:1018800000ED00E0224B9B6803F00C03042B14D006
:10189000082B16D01BB11F4B1F4A1A6002E01D4BCC
:1018A0001D4A1A601A4B9B68C3F303131B4AD15C91
:1018B000184A1368CB4013607047164B184A1A60D9
:1018C000F0E7134B59685A6802F03F0211F4800F99
:1018D00013D0134BB3FBF2F30D4A5268C2F38812D4
:1018E00002FB03F30A4A5268C2F30142013252007A
:1018F000B3FBF2F3074A1360D4E7074BB3FBF2F3F1
:10190000034A5268C2F3881202FB03F3EAE700BFFE
:10191000003802400C0000200024F4007835000854
:1019200000127A0030B595B000240194224B1A6C55
:1019300042F080521A641B6C03F080530193019BA8
:1019400002941E4B1A6842F480421A601B6803F42A
:1019500080430293029B012308934FF48033099341
:101960004FF480030F93082310934FF4A87311933F
:1019700002251295072313930E9508A8FEF7B2FFD0
:101980000F230393049505944FF4A05306934FF44B
:1019900080530793052103A8FFF786FAFFF792FB10
:1019A000074BA3FB00308009FEF7F0FD0420FEF793
:1019B00001FE15B030BD00BF00380240007000408D
:1019C000D34D621008B5FEF751FDFFF7ABFFFFF7EF
:1019D00059FF08BD08B50A4601460248FFF7F6FD63
:1019E000FEE700BF883500080160426003730123F1
:1019F00003FA02F282607047037B5BB1426802F136
:101A00001001036803F5801380339B0201228A4092
:101A10009A617047036803F5801380339B028268E4
:101A20009A617047037B3BB1036803F580138033F1
:101A30009B0282689A617047426802F11001036854
:101A400003F5801380339B0201228A409A6170471C
:101A500010B586B004460D48026B2168012303FAD5
:101A600001F10A430263A2680192029302220492E6
:101A70000393206800F58010803001A98002FEF7F2
:101A8000B7FD2046FFF7CEFF06B010BD003802407C
:101A9000036803F5801380339B0219698268114241
:101AA00004D0596921EA02025A61704759690A4310
:101AB0005A617047037B5BB1036803F58013803381
:101AC0009B021A6983681A420CBF012000207047EC
:101AD000036803F5801380339B021A6983681A42F6
:101AE00014BF012000207047012800D070474FF636
:101AF000FF739942FAD110B50E4C00230C2203213A
:101B00002046FFF771FF00230D22032104F110008E
:101B1000FFF76AFF00230E22032104F12000FFF7E4
:101B200063FF00230F22032104F13000FFF75CFF65
:101B300010BD00BF2C0200202DE9F04182B0054607
:101B40000E46FFF76DFD4B48FFF75AFD4A4800F07F
:101B5000A3FC4A4B1B68DB6818220121484800F0AF
:101B6000B9FB484B19684848FFF730FD01A800F061
:101B700099F80024032C06D8444800EB0410FFF722
:101B800067FF0134F6E7012D0BDC4FF0100800244D
:101B9000032C0FD83D4800EB0410FFF72DFF013454
:101BA000F6E7706800F036FA80460F28EFDC4FF059
:101BB0001008ECE74FF47A7000F090F80024032C42
:101BC00006D8324800EB0410FFF72CFF0134F6E78B
:101BD000FA2000F083F801212D48FFF7F7FC0025DB
:101BE0000126032D16D8294C04EB05142046FFF7D7
:101BF00003FF40F2EE2000F071F82046FFF712FFDD
:101C0000FA2000F06BF8013631462148FFF7DEFC80
:101C10000135E6E7002709E04FF47A7000F05EF83E
:101C2000013631461A48FFF7D1FC0137B8450FDDC0
:101C30000025032DF0D8154C04EB05142046FFF7C2
:101C400027FF2046FFF736FF0028E5D10135F0E7F2
:101C50000024032C06D80D4800EB0410FFF7CCFE3F
:101C60000134F6E74FF47A7000F038F8002002B043
:101C7000BDE8F081B8350008CC3500081000002020
:101C8000E83500080C000020043600082C02002073
:101C90001C36000808B54FF6FF710120FFF724FF3E
:101CA00008BD70470A4B1B680A4AA2FB03239B0925
:101CB000013BB3F1807F0AD24FF0E0225361064B23
:101CC000F02183F8231000239361072313617047E9
:101CD0000C000020D34D621000ED00E0034B1860B3
:101CE000024B1B68002BFBD1704700BF6C02002029
:101CF000034B1B681BB1024A1368013B136070471A
:101D00006C02002008B5FEF7CBFBFFF7F1FF08BD22
:101D100053B94AB9002908BF00281CBF4FF0FF3152
:101D20004FF0FF3000F074B9ADF1080C6DE904CE4E
:101D300000F006F8DDF804E0DDE9022304B07047A6
:101D40002DE9F047089E0D4604468846002B4DD1EC
:101D50008A42944668D9B2FA82F252B101FA02F389
:101D6000C2F1200120FA01F10CFA02FC41EA030859
:101D700094404FEA1C45210CB8FBF5FE1FFA8CF786
:101D800005FB1E8341EA03430EFB07F199420BD981
:101D90001CEB03030EF1FF3080F01E81994240F2EC
:101DA0001B81AEF1020E63445B1AA4B2B3FBF5F0E3
:101DB00005FB103344EA034400FB07F7A7420AD9A6
:101DC0001CEB040400F1FF3380F00881A74240F2CD
:101DD000058164440238E41B40EA0E4000211EB134
:101DE000D4400023C6E90043BDE8F0878B4208D900
:101DF000002E00F0EE800021C6E900050846BDE88F
:101E0000F087B3FA83F100294AD1AB4202D3824270
:101E100000F2F980841A65EB030301209846002E36
:101E2000E2D0C6E90048DFE702B9FFDEB2FA82F28B
:101E3000002A40F09180A1EB0C054FEA1C471FFAE5
:101E40008CFE0121B5FBF7F307FB1350250C45EA87
:101E500000450EFB03F0A84208D91CEB050503F171
:101E6000FF3802D2A84200F2CB8043462D1AA4B21A
:101E7000B5FBF7F007FB105544EA05440EFB00FEE6
:101E8000A64508D91CEB040400F1FF3502D2A64593
:101E900000F2BB802846A4EB0E0440EA03409EE714
:101EA000C1F120078B4022FA07FC4CEA030C20FA10
:101EB00007F405FA01F31C43FD404FEA1C4900FA00
:101EC00001F3B5FBF9F8200C1FFA8CFE09FB18553D
:101ED00040EA054508FB0EF0A84202FA01F20BD9D0
:101EE0001CEB050508F1FF3A80F08880A84240F21B
:101EF0008580A8F1020865442D1AA4B2B5FBF9F05B
:101F000009FB105544EA054500FB0EFEAE4508D915
:101F10001CEB050500F1FF346CD2AE456AD90238DE
:101F2000654440EA0840A0FB0294A5EB0E05A542DB
:101F3000C846A64656D353D05EB1B3EB080265EB54
:101F40000E0505FA07F722FA01F3CD401F43C6E953
:101F500000750021BDE8F087C2F1200320FA03F1EB
:101F60000CFA02FC25FA03F395400D434FEA1C4797
:101F70001FFA8CFEB3FBF7F107FB11302B0C43EA81
:101F8000004301FB0EF0984204FA02F408D91CEB5E
:101F9000030301F1FF382FD298422DD9023963444F
:101FA0001B1AADB2B3FBF7F007FB103345EA03454C
:101FB00000FB0EF3AB4208D91CEB050500F1FF381E
:101FC00016D2AB4214D902386544ED1A40EA0141F9
:101FD00038E73146304607E78646E5E61846FAE632
:101FE0004B45A9D2B9EB020864EB0C0E0138A3E70C
:101FF0004046EAE7204694E74146D1E7D0467BE7F2
:10200000023B654432E7084609E76444023842E788
:10201000704700BF0A22002100F028BB014B18685E
:10202000704700BF10000020002310B50446C0E92F
:102030000033C0E90433836081814366C2818361D8
:10204000194608225C3000F056F9054B6362054BD7
:10205000A362054BE362054B2462236310BD00BFFE
:10206000C9240008EB2400082325000847250008A0
:10207000014900F0AFB800BFBD29000870B5682263
:102080004D1E55430E4605F1740100F03DF904461E
:1020900040B10021C0E900160C30A06005F16802D3
:1020A00000F029F9204670BD014800F022B900BFB8
:1020B00071020020014800F01DB900BF710200202C
:1020C000014800F016B900BF72020020014800F07C
:1020D00011B900BF7202002010B50446FFF7F0FFEF
:1020E000A3691BB1BDE81040FFF7F0BFC4E912338C
:1020F0002365134B134A1B68A262A34204BF01234A
:10210000A361204600F020F86060204600F01CF833
:10211000A060204600F018F80022E060042160680A
:10212000FFF782FFA06801220921FFF77DFFE06829
:1021300002221221FFF778FF0123A361D2E700BF3B
:102140008837000871200008F8B50746FFF7ACFF94
:102150001E4B1E68B36913B93046FFF7BDFF483602
:10216000D6E90134013B03D533680BB33668F7E792
:10217000B4F90C50D5B9164BE36004F1580065660C
:1021800000F0B6F8FFF796FFC4E90155C4E904551D
:102190002560A5610822294604F15C0000F0ABF837
:1021A000C4E90D55C4E912552046F8BD6834D9E795
:1021B00004213846FFF762FF044630600028D5D17D
:1021C000FFF778FF0C233B60EEE700BF883700087D
:1021D0000100FFFF2DE9F8430646884600F1480458
:1021E0000027D4E90195B9F1010905D52468002C2F
:1021F000F7D13846BDE8F883AB89012B07D9B5F98B
:102200000E30013303D029463046C04707436835B6
:10221000E9E700002DE9F047089C8A46904602FB5A
:1022200003F9054618B183690BB9FFF755FF264B33
:102230009C4223D16C68636EDE0705D4A3899805A0
:1022400002D4A06D00F055F8A389190720D52369A1
:10225000F3B100264E4529D0A7681AF80610013FB1
:10226000002FA76004DAA3699F4219DB0A2917D05F
:1022700023685A1C226019700136EBE7134B9C420D
:1022800001D1AC68D7E7124B9C4208BFEC68D2E79B
:102290002146284600F092FA0028DAD0002605E010
:1022A0002246284600F026FA0130E5D1636EDA07AF
:1022B00005D4A3899B0502D4A06D00F01BF8B6FBE2
:1022C000F8F0BDE8F08700BF48370008683700081D
:1022D0002837000807B5009313460A46014603480D
:1022E0000068FFF797FF03B05DF804FB10000020C3
:1022F00070477047704702440346934200D17047CD
:1023000003F8011BF9E70000F8B5CD1C25F0030523
:1023100008350C2D38BF0C25002D064601DBA942DF
:1023200003D90C2333600020F8BD00F0FBFB2149EA
:102330000A6814469CB9204F3B6823B921463046B1
:1023400000F0B2F838602946304600F0ADF8431C82
:1023500023D10C233360304600F0EAFBE3E7236827
:102360005B1B17D40B2B03D923601C44256004E0AE
:102370006368A2420CBF0B605360304600F0D8FB8C
:1023800004F10B00231D20F00700C21ACCD01B1A49
:10239000A350C9E722466468CCE7C41C24F00304B8
:1023A000A042E3D0211A304600F07EF80130DDD1A2
:1023B000CFE700BF740200207802002070B50E46FF
:1023C000054618B183690BB9FFF786FEAB69AC68A7
:1023D00013B92846FFF780FE2C4B9C4220D16C6835
:1023E000636EDB0705D4A389980502D4A06DFFF7BF
:1023F00080FFA38919071DD52369DBB1013EA368BE
:1024000016F8011F013BA36039BB002B38DA2246C6
:102410000A21284600F06EF9013011D00A2511E09A
:102420001B4B9C4201D1AC68DAE71A4B9C4208BFB7
:10243000EC68D5E72146284600F0C0F90028DDD039
:102440004FF0FF35636EDA0705D4A3899B0502D4EC
:10245000A06DFFF74FFF284670BD002B04DAA2697C
:102460009A4206DC0A2904D023685A1C226019709B
:10247000C5E72246284600F03DF90130BFD1DFE72D
:1024800023680A255A1C22601D70DBE748370008C4
:102490006837000828370008024B01461868FFF724
:1024A0008DBF00BF1000002038B5064D0023044644
:1024B00008462B60FEF70CFE431C02D12B6803B1CB
:1024C000236038BDFC00002010B50C46B1F90E1099
:1024D00000F06EFE0028ABBF636DA3891B1823F4C8
:1024E0008053ACBF6365A38110BD2DE9F0411F4649
:1024F0008B89DB0505460C46164605D5B1F90E104D
:102500000223002200F096FAA389B4F90E1023F4F6
:102510008053A38132463B462846BDE8F04100F097
:102520003BB910B50C46B1F90E1000F083FA431C0C
:10253000A38915BF606523F4805343F48053A381BE
:1025400018BFA38110BDB1F90E1000F0A5B910F8A5
:10255000012B11F8013B012A28BF9A42F7D0D01A6B
:102560007047034613F8012B002AFBD1181A0138D3
:1025700070470000012B2DE9F047804601D0242B45
:1025800006D9FFF74BFD162303600020BDE8F08756
:10259000354F0D46284615F8014BE65D16F0080646
:1025A000F8D12D2C2FD12C780126851C002B57D04B
:1025B000102B09D1302C07D1287800F0DF005828E3
:1025C00049D16C781023023506F1004E0EF1FF3E22
:1025D0000027BEFBF3F9384603FB19EAA4F1300CDF
:1025E000BCF1090F14D86446A34222DD002F1DDB85
:1025F00081451BD301D1A24518DB00FB0340012715
:1026000015F8014BEAE72B2C04BF2C78851CCDE78D
:10261000A4F1410CBCF1190F01D8373CE4E7A4F157
:10262000610CBCF1190F04D8573CDDE74FF0FF37C0
:10263000E6E7002F07DA2223C8F800307046002AA8
:10264000A4D0691E05E006B14042002A9ED0002FAA
:10265000F7D111609AE73024002BB5D10823B3E7F6
:10266000302CA9D00A23AFE72836000813460A46C3
:10267000014602480068FFF77DBF00BF1000002040
:1026800030B51446002C9BB005461A4605DA8B235C
:1026900003604FF0FF301BB030BD4FF40273ADF854
:1026A0000C3014BF04F1FF332346029305934FF619
:1026B000FF7300910491ADF80E3069461E9B00F047
:1026C000E3FA431CBCBF8B232B60002CE3D0009BA0
:1026D00000221A70DFE7000007B5009313460A4690
:1026E000014603480068FFF7CBFF03B05DF804FB29
:1026F00010000020F8B50E461446054618B183694F
:102700000BB9FFF7E9FC214B9C422BD16C68A36904
:10271000A360A3891A072FD523696BB323692068A7
:10272000C01A6369F6B28342374604DC2146284664
:1027300000F044F930BBA368013BA36023685A1C36
:1027400022601E7063690130834204D0A389DB07D5
:1027500006D50A2E04D12146284600F02FF988B963
:102760003846F8BD0A4B9C4201D1AC68CFE7094B13
:102770009C4208BFEC68CAE72146284600F01EF8D4
:102780000028CBD04FF0FF37EAE700BF48370008FA
:10279000683700082837000838B5074D0446084652
:1027A000114600222A601A46FEF73CFE431C02D165
:1027B0002B6803B1236038BDFC000020324B70B59C
:1027C0001D6806460C4625B1AB6913B92846FFF7CC
:1027D00083FC2E4B9C420FD16C68A389B4F90C206A
:1027E00019072CD4DD0611D40923336042F04003CD
:1027F000A3814FF0FF303EE0254B9C4201D1AC68F5
:10280000EBE7244B9C4208BFEC68E6E7580712D57B
:10281000616B41B104F14403994202D0304600F0AB
:102820008DF900236363A38923F02403A38100238C
:10283000636023692360A38943F00803A3812369AC
:102840004BB9A38903F42073B3F5007F03D021466D
:10285000304600F027F9A089B4F90C2010F00103EC
:102860000AD00023A36063695B42A361236943B973
:1028700010F08000BAD170BD810758BF6369A360B2
:10288000F4E70020F7E700BF1000002048370008F9
:10289000683700082837000838B5064D002304467D
:1028A00008462B60FEF7F0FD431C02D12B6803B1F4
:1028B000236038BDFC0000208A89F8B50546100762
:1028C0000C4657D44B68002B04DC0B6C002B01DC4E
:1028D0000020F8BDE66A002EFAD0002312F48052E0
:1028E0002F682B6032D0606DA3895A0705D56368C5
:1028F000C01A636B0BB1236CC01A00230246E66A50
:10290000216A2846B047431CA38906D129681D299E
:102910002CD8294ACA40D60728D500226260D9049B
:102920002269226004D5421C01D12B6803B960657D
:10293000616B2F600029CBD004F14403994202D08F
:10294000284600F0FBF800206063C2E7216A0123FB
:102950002846B047411CC7D12B68002BC4D01D2B83
:1029600001D0162B01D12F60B2E7A38943F04003B9
:10297000A381AEE70F69002FAAD093070E6808BFA6
:102980004B690F6018BF0023F61B8B60002E9FDD84
:10299000216AD4F828C033463A462846E047002842
:1029A00006DCA38943F04003A3814FF0FF3090E79A
:1029B0000744361AEAE700BF0100402038B50B692A
:1029C00005460C4613B90025284638BD18B1836961
:1029D0000BB9FFF781FB144B9C421BD16C68B4F917
:1029E0000C30002BEFD0626ED00704D4990502D4CE
:1029F000A06DFFF77EFC28462146FFF75DFF636E62
:102A0000DA070546E0D4A3899B05DDD4A06DFFF766
:102A100071FCD9E7054B9C4201D1AC68DFE7044B60
:102A20009C4208BFEC68DAE74837000868370008BE
:102A30002837000838B5074D0446084611460022DD
:102A40002A601A46FEF7DAFC431C02D12B6803B158
:102A5000236038BDFC00002070B50E46B1F90E10A1
:102A6000002996B014461D4608DAB6F90C3000224B
:102A70002A601A0610D44FF480630EE06A4600F014
:102A8000A9FB0028F1DB019A02F47042A2F5005381
:102A90005A425A412A60EEE740230020236016B0D4
:102AA00070BD00008B8973B59D0706460C4607D59F
:102AB00004F14703236023610123636102B070BD09
:102AC00001AB6A46FFF7C8FF009905463046FFF79D
:102AD0001BFC48B9B4F90C309A05EFD423F003037A
:102AE00043F00203A381E3E70D4BB362A3892060A7
:102AF00043F08003A381009B6361019B20615BB174
:102B0000B4F90E10304600F077FB28B1A38923F00A
:102B1000030343F00103A381A0890543A581CDE709
:102B2000712000080148FFF7E4BB00BF70020020DD
:102B30000148FFF7DFBB00BF7002002038B5054633
:102B4000002941D051F8043C0C1F002BB8BFE418F9
:102B5000FFF7E8FF1D4A136833B963601460284625
:102B6000BDE83840FFF7E4BFA34208D92068211828
:102B70008B4201BF19685B6809182160EDE71A46AE
:102B80005B680BB1A342FAD911685018A0420BD16F
:102B900020680144501883421160E0D118685B68D6
:102BA000536001441160DAE702D90C232B60D6E7A9
:102BB000206821188B4204BF19685B68636004BFFA
:102BC000091821605460CAE738BD00BF74020020B4
:102BD0002DE9F0478E689E4282460C4690461F467D
:102BE00038D88A8912F4906F32D025680969A5EB2C
:102BF0000109656905EB450505EBD57501334B44C6
:102C00006D109D4238BF1D46530531D52946FFF74B
:102C10007BFB064650B90C23CAF80030A38943F069
:102C20004003A3814FF0FF30BDE8F08721694A4699
:102C300000F046FBA38923F4906343F08003A38153
:102C4000266165614E44A5EB09052660A5603E46F8
:102C5000BE4200D93E4620683246414600F03EFB67
:102C6000A3689B1BA3602368334423600020DBE739
:102C70002A4600F04DFB06460028E1D12169504666
:102C8000FFF75CFFC7E700002DE9F04F98468B89FE
:102C90001B069DB007460D4614460ED50B6963B959
:102CA0004021FFF731FB2860286120B90C233B60ED
:102CB0004FF0FF30D1E040236B61002309932023C4
:102CC0008DF82930CDF80C803023DFF8A8818DF8FD
:102CD0002A304FF0010923469A4613F8012B0AB116
:102CE000252AF9D1BAEB040B0BD05B4622462946C4
:102CF0003846FFF76DFF013000F0AA80099A5A4468
:102D000009929AF80030002B00F0A28000234FF0C7
:102D1000FF32CDE905230AF1010A049307938DF8E8
:102D200053301A935446052214F8011B514800F001
:102D300077FA049AD8B9D00644BF20238DF85330CF
:102D4000110744BF2B238DF853309AF800302A2BFB
:102D500015D0079A544600204FF00A0C214611F86E
:102D6000013B303B092B4ED9B0B1079214E0A0EBE8
:102D7000080309FA03F313430493A246D2E7039B23
:102D8000191D1B680391002BBBBF5B4242F002027E
:102D900007930793B8BF049223782E2B0CD1637846
:102DA0002A2B35D1039B1A1D1B680392002BB8BF39
:102DB0004FF0FF3302340593DFF8BCA021780322E3
:102DC000504600F02DFA40B14023A0EB0A0003FA70
:102DD00000F0049B03430134049314F8011B2748BB
:102DE0008DF82810062200F01BFA002838D0244B5A
:102DF0001BBB039B073323F0070308330393099B93
:102E00003344099367E70CFB02320C460120A5E727
:102E100000230134059319464FF00A0C204610F8A0
:102E2000012B303A092A03D9002BC5D00591C3E7FD
:102E30000CFB012104460123F0E703AB00932A4673
:102E4000104B04A93846AFF30080421C0646D6D189
:102E5000AB895B063FF52CAF09981DB0BDE8F08F3C
:102E600003AB00932A46074B04A9384600F07AF8D2
:102E7000EBE700BF8C370008923700089637000850
:102E800000000000D12B00082DE9F04716469946B6
:102E90008A680B69DDF820809342B8BF134633601F
:102EA00091F8432007460C460AB10133336023688A
:102EB000990642BF336802333360256815F0060572
:102EC00006D104F1190AE36832689B1AAB4226DC8A
:102ED00094F84320131E226818BF012392062BD4B6
:102EE00004F1430249463846C04701301ED02368EA
:102EF000E568326803F00603042B08BFAD1AA36827
:102F000022690CBF25EAE57500259342C4BF9B1AD0
:102F1000ED1800261A34B5421AD1002008E001232A
:102F2000524649463846C047013003D14FF0FF3082
:102F3000BDE8F0870135C6E7E1185A1C302081F85A
:102F40004300224494F8451082F843100233C7E747
:102F50000123224649463846C0470130E6D00136B3
:102F6000D9E700002DE9FF470F7E0C9D782F914691
:102F700080460C469A4601F1430207D8622F0AD8D0
:102F8000002F00F0D880582F00F0A38004F14205F4
:102F900084F842703AE0A7F16303152BF6D801A13B
:102FA00051F823F0FD2F0008113000088D2F000884
:102FB0008D2F00088D2F00088D2F0008113000087C
:102FC0008D2F00088D2F00088D2F00088D2F0008F1
:102FD0001D31000841300008FF3000088D2F000827
:102FE0008D2F00083F3100088D2F00084130000868
:102FF0008D2F00088D2F0008073100082B681A1D3F
:103000001B682A6004F1420584F842300123A3E0E2
:1030100020682968060601F104030AD50E682B60B2
:10302000002E03DA2D23764284F843305E480A23CB
:1030300019E00E682B6010F0400F18BF36B2EFE7B2
:103040002B682068191D2960010601D51E6802E061
:103050004606FBD51E8854486F2F0CBF08230A2351
:10306000002184F843106568A560002DA2BF216887
:1030700021F0040121600EB9002D4DD01546B6FB9C
:10308000F3F103FB1167C75D05F8017D3746BB42CD
:103090000E46F4D9082B0BD12368DE0708D5236927
:1030A00061689942DEBF302305F8013C05F1FF3528
:1030B000521B2261CDF800A04B4603AA2146404690
:1030C000FFF7E2FE01304CD14FF0FF3004B0BDE815
:1030D000F087354881F845702968236851F8046BFA
:1030E00029601D0614D5DF0744BF43F02003236089
:1030F0001EB9236823F0200323601023B0E7236860
:1031000043F0200323607823284884F84530E3E720
:10311000590648BFB6B2E6E71546BBE72B682668F6
:103120006169181D286035061B6801D5196002E029
:103130007006FBD51980002323611546BAE72B687A
:103140001A1D2A601D6862680021284600F068F890
:1031500008B1401B606063682361002384F843303A
:10316000A8E723692A4649464046D0470130ABD0FC
:1031700023689B0713D4E068039B9842B8BF1846A6
:10318000A4E70123324649464046D04701309BD050
:103190000135E36803995B1AAB42F2DCEBE70025EB
:1031A00004F11906F5E700BF9D370008AE370008A7
:1031B00038B5074D04460846114600222A601A46D3
:1031C000FEF7B6F8431C02D12B6803B1236038BD6B
:1031D000FC00002038B5074D002304460846114680
:1031E0002B60FEF797F9431C02D12B6803B12360D3
:1031F00038BD00BFFC00002038B5064D0023044652
:1032000008462B60FEF793F9431C02D12B6803B1EB
:10321000236038BDFC00002000000000000000001A
:1032200001F0FF01102A2BDB10F0070F08D010F877
:10323000013B013A8B422DD010F0070F42B3F6D17B
:10324000F0B441EA012141EA014122F007047FF094
:1032500000070023F0E80256083C85EA010586EAEB
:10326000010685FA47F5A3FA87F586FA47F6A5FA27
:1032700087F68EB9EED1F0BC01F0FF0102F0070233
:1032800032B110F8013B013A83EA010313B1F8D1DE
:103290000020704701387047002D06BF35460338BF
:1032A000073815F0010F07D1013015F4807F02BFF8
:1032B000013015F4C03F0130F0BC0138704700BF49
:1032C0000A44914200F1FF3300D1704710B511F864
:1032D000014B03F8014F9142F9D110BD884210B55E
:1032E00001EB020402D98442234607D8431EA142BF
:1032F00008D011F8012B03F8012FF8E7024401462A
:103300008A4200D110BD13F8014D02F8014DF7E7D4
:10331000F8B5074614460E4621B9BDE8F8401146F7
:10332000FEF7F2BF22B9FFF709FC25462846F8BD93
:1033300000F014F8A0420FD221463846FEF7E4FF11
:1033400005460028F2D031462246FFF7B9FF314644
:103350003846FFF7F3FBE9E73546E7E751F8043C69
:10336000181F002BBCBF0B58C01870472E2E2F7390
:10337000797374656D2F7372632F73746D33326656
:10338000342D68616C2F73746D3332663478785FD6
:1033900068616C5F636F727465782E630000000073
:1033A0002E2E2F73797374656D2F7372632F737460
:1033B0006D333266342D68616C2F73746D333266F1
:1033C0003478785F68616C5F6770696F2E630000A6
:1033D0002E2E2F73797374656D2F7372632F737430
:1033E0006D333266342D68616C2F73746D333266C1
:1033F0003478785F68616C5F7263632E63000000ED
:103400003A7474006D61696E28617267633D25646A
:103410002C20617267763D5B000000002C200000CC
:1034200022257322000000005D293B0A00000000F5
:10343000537461636B206672616D653A0A00000027
:10344000205230203D2020253038580A000000004E
:10345000205231203D2020253038580A000000003D
:10346000205232203D2020253038580A000000002C
:10347000205233203D2020253038580A000000001B
:1034800020523132203D20253038580A00000000FB
:10349000204C52203D2020253038580A00000000E2
:1034A000205043203D2020253038580A00000000DD
:1034B00020505352203D20253038580A000000008B
:1034C0004653522F4641523A0A00000020434653C9
:1034D00052203D2020253038580A0000204846530D
:1034E00052203D2020253038580A00002044465301
:1034F00052203D2020253038580A000020414653F4
:1035000052203D2020253038580A0000204D4D46DD
:103510004152203D20253038580A000020424641C3
:1035200052203D2020253038580A00004D69736331
:103530000A000000204C522F4558435F5245545515
:10354000524E3D20253038580A0000005B48617219
:10355000644661756C745D0A000000005B4275731F
:103560004661756C745D0A005B5573616765466101
:10357000756C745D0A00000000000000000000008F
:10358000010203040607080957726F6E6720706115
:1035900072616D65746572732076616C75653A2031
:1035A00066696C65202573206F6E206C696E6520DE
:1035B00025640D0A0000000048656C6C6F204172A4
:1035C0006D20576F726C6421000000005374616EAF
:1035D00064617264206F7574707574206D657373A7
:1035E0006167652E000000005374616E646172644F
:1035F000206572726F72206D6573736167652E0A44
:103600000000000053797374656D20636C6F636B09
:103610003A20257520487A0A000000005365636F40
:103620006E642025750A0000202020202020202004
:103630002028282828282020202020202020202062
:103640002020202020202020881010101010101082
:1036500010101010101010100404040404040404CA
:10366000040410101010101010414141414141015B
:10367000010101010101010101010101010101013A
:103680000101011010101010104242424242420249
:10369000020202020202020202020202020202020A
:1036A00002020210101010200000000000000000B4
:1036B000000000000000000000000000000000000A
:1036C00000000000000000000000000000000000FA
:1036D00000000000000000000000000000000000EA
:1036E00000000000000000000000000000000000DA
:1036F00000000000000000000000000000000000CA
:1037000000000000000000000000000000000000B9
:1037100000000000000000000000000000000000A9
:103720000000000000000000000000000000000099
:103730000000000000000000000000000000000089
:103740000000000000000000000000000000000079
:103750000000000000000000000000000000000069
:103760000000000000000000000000000000000059
:103770000000000000000000000000000000000049
:10378000000000000000000014000020232D302B5A
:103790002000686C4C006566674546470030313252
:1037A00033343536373839414243444546003031A9
:0F37B00032333435363738396162636465660009
:0837C00080E5FF7F010000001D
:1037C8007856341201FFFFFF100000000024F400B7
:1037D800140000200000000048370008683700087F
:1037E800283700080000000000000000000000006A
:1037F80000000000000000000000000000000000C1
:1038080000000000000000000000000000000000B0
:1038180000000000000000000000000000000000A0
:103828000000000000000000000000000000000090
:083838000000000032547698F4
:040000050800018965
:00000001FF
