:020000040800F2
:1000000000000220B9020008BF020008C302000875
:1000100035030008390300088103000800000000D0
:10002000000000000000000000000000C9030008FC
:10003000CD03000800000000D1030008B91A000831
:10004000E5030008E5030008E5030008E5030008F0
:10005000E5030008E5030008E5030008E5030008E0
:10006000E5030008E5030008E5030008E5030008D0
:10007000E5030008E5030008E5030008E5030008C0
:10008000E5030008E5030008E5030008E5030008B0
:10009000E5030008E5030008E5030008E5030008A0
:1000A000E5030008E5030008E5030008E503000890
:1000B000E5030008E5030008E5030008E503000880
:1000C000E5030008E5030008E5030008E503000870
:1000D000E5030008E5030008E5030008E503000860
:1000E000E5030008E5030008E5030008E503000850
:1000F000E5030008E5030008E5030008E503000840
:10010000E5030008E5030008E5030008E50300082F
:10011000E5030008E5030008E5030008E50300081F
:10012000E5030008E5030008E5030008E50300080F
:10013000E5030008E5030008E5030008E5030008FF
:10014000E5030008E5030008E5030008E5030008EF
:10015000E5030008E5030008E5030008E5030008DF
:10016000E5030008E5030008E5030008E5030008CF
:10017000E5030008E5030008E503000800000000AF
:10018000E5030008E503000800B583B001F028FB93
:10019000384B394A1360394A1360394906E052F83E
:1001A000041B43F8041B9842F9D86146354B994229
:1001B00005D20A684B6801F10C0C8868F3E72E4BF6
:1001C0001A68314B9A4200D0FEE72C4B1A682F4B2D
:1001D0009A42F9D1274B2E4A13602E4A13602E4AB9
:1001E00000E002462D4B9A4209D2104650F8083BD7
:1001F00051689942F5D9002243F8042BF9E7244BC2
:100200001B6813B9234B1B6803B1FEE701F09CFB8D
:10021000694601A801F03CF9214C224BE41AA410D4
:10022000002504E01F4B53F8253098470135AC42B8
:10023000F8DC1D4C1D4BE41AA410002504E01B4BF8
:1002400053F8253098470135AC42F8DC0099019805
:1002500001F000FC0546164C164BE41AA41004E00D
:10026000013C144B53F824309847002CF8DC284606
:1002700001F0AAF8BABADECA00000020B4000020DB
:10028000E8030008000400087856341232547698C7
:10029000B8000020BC020020000400081004000880
:1002A00010040008100400081404000810040008DA
:1002B000140400081404000808B5FFF765FF00BE29
:1002C000FEE71EF0040F0CBFEFF30880EFF3098088
:1002D0007146414A10472DE9F04182B004460D466F
:1002E000124B5F6BD3F838809E6A1B6B13F0020FC2
:1002F00003D00E4BDB6A002B0BDB0D4801F05CF9E1
:10030000009543463A463146204601F06FF900BE5B
:10031000FEE74BF6AB6101F0E3F90028EDD0034BAB
:100320004FF00042DA6202B0BDE8F08100ED00E07B
:10033000F028000800BEFEE71EF0040F0CBFEFF32C
:100340000880EFF309807146244A10472DE9F041F7
:1003500082B004460D46084B5F6BD3F838809E6A26
:10036000064801F029F9009543463A4631462046B1
:1003700001F03CF900BEFEE700ED00E000290008B6
:100380001EF0040F0CBFEFF30880EFF309807146F5
:10039000134A10472DE9F04182B004460D46084B40
:1003A0005F6BD3F838809E6A064801F005F9009526
:1003B00043463A463146204601F018F900BEFEE7B2
:1003C00000ED00E00C29000800BEFEE700BEFEE7DD
:1003D00000BEFEE770470000D70200084D0300088A
:0803E0009503000800BEFEE7D2
:1003E800F82A000800000020B8000020F82A0008B9
:1003F8000000001000000010B8000020C00200201B
:0C0408000000001000000010951A000811
:1004200010B504460E4B18784FF47A73B3FBF0F313
:100430000C4A1068B0FBF3F000F0A8F868B90F2C74
:1004400001D901200AE0002221464FF0FF3000F0E0
:1004500057F8054B1C60002000E0012010BD00BFD4
:10046000040000200C0000200800002008B50B4B01
:100470001A6842F400721A601A6842F480621A60C4
:100480001A6842F480721A60032000F01BF80F20F3
:10049000FFF7C6FF01F005FB002008BD003C02404D
:1004A000034A1168034B1B780B441360704700BF6D
:1004B000BC00002004000020014B1868704700BFFA
:1004C000BC00002010B50446C31E042B0FD80A4AF6
:1004D000D36823F4E0631B041B0C240204F4E064DF
:1004E000234343F0BF6343F40033D36010BD922134
:1004F000024801F031FAEAE700ED00E00C270008BD
:1005000070B505460C4616460F2A25D80F2C28D85C
:100510001B4BDB68C3F30223C3F10701042928BF87
:1005200004211A1D062A21D9033B4FF0FF3202FA9B
:1005300001F124EA01049C4002FA03F326EA0306CF
:100540003443002D14DB2401E4B205F1604505F5C8
:10055000614585F8004370BDAA210A4801F0FCF905
:10056000D4E7AB21074801F0F7F9D1E70023DCE736
:1005700005F00F052401E4B2034B5C55EBE700BF27
:1005800000ED00E00C27000814ED00E00138B0F1A8
:10059000807F0BD24FF0E0235861054AF02182F8AA
:1005A00023100020986107221A61704701207047CC
:1005B00000ED00E010B50446042800D040B9042C3A
:1005C0000CD04FF0E022136923F00403136110BD37
:1005D00040F2C911054801F0BFF9F0E74FF0E02201
:1005E000136943F004031361F1E700BF0C2700080F
:1005F0002DE9F04383B007460E46374B984223D08F
:1006000003F5806398421FD003F5806398421BD0A6
:1006100003F58063984217D003F58063984213D0A6
:1006200003F5806398420FD003F5806398420BD0A6
:1006300003F58063984207D003F58063984203D0A6
:10064000B321264801F088F933689AB212B11B0C25
:100650001B041BB1B421214801F07EF97368012B02
:100660001ED9112B1CD0022B1AD0122B18D01C4AC9
:10067000934215D002F58012934211D002F58012F8
:1006800093420DD0A2F5F812934209D002F58012E0
:10069000934205D002F58012934201D0032B04D17E
:1006A000B368022B06D8002452E0B5210B4801F0B4
:1006B00053F9F5E7B621094801F04EF9F3E7C821EF
:1006C000064801F049F959E0E021044801F044F9F5
:1006D00097E0072307E000BF000002404027000822
:1006E0000000111000238B4003430232794941F886
:1006F0002230794B1A686FEA080322EA0801706811
:1007000010F4803F01D048EA0201734A1160526838
:1007100003EA0201706810F4003F01D048EA0201C8
:100720006D4A5160926803EA0201706810F4801FFC
:1007300001D048EA0201684A9160D26813407168AA
:1007400011F4001F01D048EA0203634AD360013468
:100750000F2C00F2BB800125A540336803EA050891
:1007600035EA0303F3D173685A1E012A03D9112B0A
:1007700001D0122B15D1F368032BA0D8BA68610001
:1007800003238B4022EA0302F3688B401343BB60D0
:100790007A6822EA05027368C3F30015A540154381
:1007A0007D60FA6865000323AB406FEA030922EA23
:1007B0000302B368AB401343FB607368022B01D0A4
:1007C000122B2ED13369E3B1092B1AD0012B18D08B
:1007D000022B16D0032B14D0042B12D0052B10D0D3
:1007E000062B0ED0072B0CD0082B0AD00A2B08D0D2
:1007F0000B2B06D00C2B04D00D2B02D00F2B7FF42B
:1008000063AFE208083257F8220004F007039900AA
:100810000F238B4020EA030033698B40034347F8E2
:1008200022303B6809EA0309736803F00303AB4015
:1008300043EA09033B60736813F0805F87D00023AD
:100840000193264B5A6C42F480425A645B6C03F469
:1008500080430193019BA208911C1E4B53F8210079
:1008600004F0030399000F238B4020EA03001C4B84
:100870009F423FF437AF03F580639F421AD003F5E0
:1008800080639F4218D003F580639F4216D003F522
:1008900080639F4214D003F580639F4212D003F51A
:1008A00080639F4210D003F580639F423FF411AFF5
:1008B000082318E7012316E7022314E7032312E7AE
:1008C000042310E705230EE706230CE703B0BDE879
:1008D000F08300BF00380140003C01400038024076
:1008E0000000024070B5054614460E4621B1012CA9
:1008F00008D86CB1AE6170BD40F29F11064801F09E
:100900002BF8F4E74FF4D071034801F025F8F0E735
:100910003604AE61EFE700BF40270008002800F072
:10092000588270B582B0044603680F2B39D823680B
:1009300013F0010F4DD063682BB1B3F5803F02D0A7
:10094000B3F5A02F32D1804B9B6803F00C03042B2E
:1009500036D07D4B9B6803F00C03082B2BD06368CB
:10096000B3F5803F5FD0B3F5A02F62D0764B1A6805
:1009700022F480321A601A6822F480221A606368B6
:10098000002B60D0FFF798FD05466F4B1B6813F4F2
:10099000003F1ED1FFF790FD401B6428F5D90320CE
:1009A0001EE2E821694800F0D7FFC0E7ED21674863
:1009B00000F0D2FFC7E7644B5B6813F4800FCED022
:1009C000614B1B6813F4003F03D06368002B00F0F9
:1009D0000282236813F0020F66D0E368012B41D82E
:1009E00023691F2B44D8584B9B6813F00C0F4AD037
:1009F000554B9B6803F00C03082B3FD0E368002B9A
:100A000077D0534B01221A60FFF756FD05464E4B37
:100A10001B6813F0020F63D1FFF74EFD401B022845
:100A2000F5D90320DCE1484A136843F480331360AE
:100A3000A5E7454B1A6842F480221A601A6842F40E
:100A400080321A609BE7FFF737FD05463E4B1B6877
:100A500013F4003FBDD0FFF72FFD401B6428F5D9EC
:100A60000320BDE140F21F11384800F075FFB7E7E1
:100A70004FF49071354800F06FFFB4E7324B5B687C
:100A800013F4800FBAD1304B1B6813F0020F03D060
:100A9000E368012B40F0A1812B4A136823F0F8038F
:100AA000216943EAC1031360236813F0080F51D092
:100AB0006369012B2FD863699BB3254B0122C3F8CF
:100AC000802EFFF7F9FC05461F4B5B6F13F0020FFA
:100AD00040D1FFF7F1FC401B0228F5D903207FE14C
:100AE000194A136823F0F803216943EAC10313602C
:100AF000DAE7174B00221A60FFF7DEFC0546124BBF
:100B00001B6813F0020FCFD0FFF7D6FC401B022862
:100B1000F5D9032064E14FF4B0710C4800F01CFFDC
:100B2000C9E70B4B0022C3F8802EFFF7C5FC054632
:100B3000054B5B6F13F0020F0CD0FFF7BDFC401BA1
:100B40000228F5D903204BE1003802407027000845
:100B500000004742236813F0040F7CD0A368012BE8
:100B600001D9052B38D1A34B1B6C13F0805F39D111
:100B7000002301939F4B1A6C42F080521A641B6C45
:100B800003F080530193019B01259B4B1B6813F4D9
:100B9000807F29D0A368012B3AD0052B3ED0954BFE
:100BA0001A6F22F001021A671A6F22F004021A6704
:100BB000A368002B3CD0FFF77FFC06468D4B1B6FD4
:100BC00013F0020F45D1FFF777FC801B41F2883309
:100BD0009842F3D9032003E14FF4C671874800F02F
:100BE000BBFEC0E70025D0E7834A136843F4807357
:100BF0001360FFF761FC06467F4B1B6813F4807F90
:100C0000C8D1FFF759FC801B0228F5D90320E7E083
:100C1000784A136F43F001031367C9E7754B1A6FE6
:100C200042F004021A671A6F42F001021A67BFE726
:100C3000FFF742FC06466F4B1B6F13F0020F08D004
:100C4000FFF73AFC801B41F288339842F3D9032026
:100C5000C6E0002D3BD1A369022B3ED8A369002B2F
:100C600000F0BD80634A926802F00C02082A00F08E
:100C70009080022B79D1E36913B1B3F5800F32D1A3
:100C8000236A3F2B35D8636A323BB3F5BF7F36D832
:100C9000A36A022B05D0042B03D0062B01D0082B0E
:100CA00033D1E36A023B0D2B35D8554B00221A662F
:100CB000FFF702FC05464F4B1B6813F0007F30D056
:100CC000FFF7FAFB401B0228F5D9032088E0494AC8
:100CD000136C23F080531364BDE740F2CF114748F3
:100CE00000F03AFEBAE74FF4EC71444800F034FEED
:100CF000C6E740F2D911414800F02EFEC3E74FF499
:100D0000ED713E4800F028FEC2E740F2DB113B489F
:100D100000F022FEC5E74FF4EE71384800F01CFEEB
:100D2000C3E7E369226A1343626A43EA8213A26A51
:100D30005208013A43EA0243E26A43EA02632D4A57
:100D400053602F4B01221A66FFF7B6FB0446294B6E
:100D50001B6813F0007F06D1FFF7AEFB001B0228D3
:100D6000F5D903203CE000203AE0254B00221A662A
:100D7000FFF7A2FB04461F4B1B6813F0007F06D051
:100D8000FFF79AFB001B0228F5D9032028E000207A
:100D900026E0012B26D0174B5B6803F48001E26943
:100DA000914221D103F03F02216A8A421ED1616A39
:100DB00047F6C0721A408A421AD103F44032A16A3F
:100DC0008A421FD103F07063E26A93421CD1002073
:100DD00006E001207047012002E0012000E0002031
:100DE00002B070BD0120FBE70120F9E70120F7E721
:100DF0000120F5E70038024000700040702700082D
:100E0000000047420120EBE70120E9E708B5314B3C
:100E10009B6803F00C03042B57D0082B57D12D4BA4
:100E20005A6802F03F025B6813F4800F2AD0294B06
:100E30005968C1F3881C4FEA4C11B1EB0C006EEB02
:100E40000E0E4FEA8E1343EA90638101091A63EB99
:100E50000E03DB0043EA5173C90011EB0C0C43F1A4
:100E60000003590200234FEA4C2041EADC5100F014
:100E700029FE184B5B68C3F3014301335B00B0FBF1
:100E8000F3F025E0134B5968C1F3881C4FEA4C116D
:100E9000B1EB0C006EEB0E0E4FEA8E1343EA90633B
:100EA0008101091A63EB0E03DB0043EA5173C900A9
:100EB00011EB0C0C43F10003990200234FEA8C2044
:100EC00041EA9C5100F0FEFDD3E7034800E00348EF
:100ED00008BD00BF0038024000127A000024F40070
:100EE000002800F0F78070B50D4604460368013B0A
:100EF0000E2B6BD8072D6FD87A4B1B6803F00F03AE
:100F0000AB4208D2EBB2774A1370136803F00F03B9
:100F1000AB4240F0E180236813F0020F29D013F0B8
:100F2000040F04D0704A936843F4E053936023683D
:100F300013F0080F04D06C4A936843F46043936045
:100F4000A3687BB1802B0DD0902B0BD0A02B09D0A8
:100F5000B02B07D0C02B05D0D02B03D0E02B01D075
:100F6000F02B3FD1604A936823F0F003A1680B4354
:100F70009360236813F0010F4ED06368032B37D8BA
:100F80006368012B3AD09A1E012A3ED9564A12684C
:100F900012F0020F00F0A28053498A6822F0030287
:100FA00013438B60FFF788FA06464F4B9B6803F0AC
:100FB0000C036268B3EB820F2ED0FFF77DFA801B23
:100FC00041F288339842F0D9032076E040F2512173
:100FD000464800F0C1FC8DE740F25221434800F042
:100FE000BBFC89E740F27521404800F0B5FCB9E749
:100FF0004FF41F713D4800F0AFFCC1E73A4A126858
:1010000012F4003FC8D1012057E0374A126812F0AD
:10101000007FC1D1012050E0324B1B6803F00F0369
:10102000AB4207D9EAB22F4B1A701B6803F00F03CB
:10103000AB4255D1236813F0040F14D0E3685BB1C1
:10104000B3F5805F08D0B3F5A05F05D0B3F5C05FFE
:1010500002D0B3F5E05F31D1234A936823F4E05323
:10106000E1680B439360236813F0080F15D02369E0
:101070005BB1B3F5805F08D0B3F5A05F05D0B3F5E1
:10108000C05F02D0B3F5E05F1ED1174A936823F426
:101090006043216943EAC1039360FFF7B7FE124B37
:1010A0009B68C3F30313124AD35CD840114B1860FA
:1010B000114B1868FFF7B4F9002070BD40F2BA2157
:1010C0000A4800F049FCC7E740F2C121074800F098
:1010D00043FCDAE7012070470120EEE70120ECE74E
:1010E0000120EAE7003C0240003802407027000877
:1010F0001C2900080C00002008000020014B186883
:10110000704700BF0C0000207047000010B5044677
:101110000368264A934237D0B3F1804F34D0A2F50A
:101120007C42934230D002F5806293422CD002F58B
:101130008062934228D002F58062934224D002F567
:101140008062934220D002F5704293421CD002F597
:101150007052934218D002F58062934214D002F587
:101160008062934210D0A2F5983293420CD002F5DF
:101170008062934208D002F58062934204D040F22C
:1011800085110B4800F0E8FB022384F83D3022680B
:10119000936803F00703062B03D0136843F00103A1
:1011A0001360012384F83D30002010BD0000014091
:1011B000A02700080368304A904212D0B0F1804F57
:1011C0000FD0A2F57C4290420BD002F58062904293
:1011D00007D002F58062904203D002F57842904237
:1011E00003D123F070034A681343234A90422AD064
:1011F000B0F1804F27D0A2F57C42904223D002F577
:10120000806290421FD002F5806290421BD002F5AE
:101210007842904217D002F57052904213D002F5F6
:10122000806290420FD002F5806290420BD0A2F50E
:101230009832904207D002F58062904203D002F5C6
:101240008062904203D123F44073CA68134323F0B1
:1012500080034A69134303608B68C3620B6883622F
:10126000054B984203D003F58063984201D10B6986
:1012700003630123436170470000014000287BD0D5
:1012800010B5044603683D4A934237D0B3F1804F0E
:1012900034D0A2F57C42934230D002F58062934272
:1012A0002CD002F58062934228D002F580629342EE
:1012B00024D002F58062934220D002F5704293421E
:1012C0001CD002F57052934218D002F5806293420E
:1012D00014D002F58062934210D0A2F59832934266
:1012E0000CD002F58062934208D002F580629342EE
:1012F00004D04FF48971224800F02EFBA3683BB163
:10130000102B05D0202B03D0402B01D0602B1BD1FC
:1013100023692BB1B3F5807F02D0B3F5007F19D1DB
:10132000A3690BB1802B1BD194F83D30F3B102239C
:1013300084F83D30214651F8040BFFF73BFF0123B1
:1013400084F83D30002010BD40F213110C4800F02D
:1013500003FBDDE74FF48A71094800F0FDFADFE78F
:1013600040F21511064800F0F7FADDE784F83C304A
:101370002046FFF7C9FEDAE7012070470000014070
:10138000A027000808B503460C4A12685AB10B4A58
:101390001068033323F003030344094A934206D839
:1013A000064A136008BD054A06491160EFE700F0E0
:1013B0000BFD0C2303604FF0FF30F3E7C00000206B
:1013C00000FC0120C002002000B530B9044D1824F3
:1013D00020462946ABBE0446FEE7024DF7E700BFB4
:1013E00026000200230002002DE9F04184B0234FC3
:1013F00001970326039600230293012401AD2046A2
:101400002946ABBE80461E4BC3F800800197039669
:101410000423029320462946ABBE8046194BC3F8ED
:101420000080019703960823029320462946ABBE0D
:101430000446154B1C60B4F1FF3F01D000230AE0C5
:10144000104B1A68104B1A60F8E7104A4FF0FF3142
:1014500042F833100133132BF7DD0C4B084A1268A6
:101460001A6000225A60074909689960DA600649E3
:10147000096819615A6104B0BDE8F081D0270008FD
:101480004401002048010020400100204C010020C0
:101490002DE9F04383B0814688462A4B00934F23C1
:1014A000019315276C4638462146ABBE0746AFBBB5
:1014B000244B002283F84F20009A3E463C463D468E
:1014C00007E001321E46204B43F825200135012458
:1014D000013292F90030FBB164B91C495956002918
:1014E000F6DB092BF4D0082D16DC222BE9D0272BB4
:1014F000E9D1E6E736B19E42EAD1002313703E46B9
:101500003C46E5E711495956002901DB092BDFD19B
:10151000002313703446DBE73DB900E00025094B9A
:1015200000221A70084A13600135074B002243F865
:101530002520C9F80050C8F80030FFF755FF03B068
:10154000BDE8F083C4000020140100205A290008DF
:101550002DE9F04385B004460F46435633BB0425BE
:1015600028462146ABBE0446384605B0BDE8F083A8
:1015700014F901CB04AA1A4402F810CC0133AB428F
:10158000F6D304AA1344002203F8102C4FF00408E9
:10159000E94640464946ABBE8046761B002EE3D066
:1015A0003546102E28BF10250023E8E70E46F5E744
:1015B00008B5FFF7CDFF08BD0FB400B583B004AB8D
:1015C00053F8042B01938021074800F0A5FC002864
:1015D00004DC03B05DF804EB04B070470146024838
:1015E000FFF7E6FFF5E700BFEC010020F8B5044681
:1015F0000D4617461E462748FFF7DEFF216826489E
:10160000FFF7DAFF61682548FFF7D6FFA168244895
:10161000FFF7D2FFE1682348FFF7CEFF2169224898
:10162000FFF7CAFF61692148FFF7C6FFA16920489B
:10163000FFF7C2FFE1691F48FFF7BEFF1E48FFF733
:10164000BBFF29461D48FFF7B7FF1D4CE16A1D4847
:10165000FFF7B2FF216B1C48FFF7AEFFE16B1B48A1
:10166000FFF7AAFF15F0800F0AD115F4004F0CD137
:101670001748FFF7A1FF06991648FFF79DFFF8BD31
:1016800039461548FFF798FFEFE731461348FFF753
:1016900093FFEDE7D4270008E4270008F4270008AB
:1016A000042800081428000824280008342800080A
:1016B00044280008542800086428000870280008FE
:1016C00000ED00E08028000890280008A02800080D
:1016D000D0280008D8280008B0280008C028000832
:1016E00038B583691B888B4201D0002038BD044681
:1016F00003684568013B302B69D8DFE803F04621D9
:101700001C1C5E30332D191968191919191936194D
:10171000246819276839686868686868686868684C
:10172000686868686868686868686868681919003F
:101730004FF0FF330360A3690233A3610120D5E7B3
:1017400000230360F7E700230360F4E700232B6026
:101750006B60AB60EB60EEE700230360EBE7AB6828
:101760000360E8E700230360E5E700230360E2E7A6
:10177000BFF34F8F1749CA6802F4E062164B134358
:10178000CB60BFF34F8F00BFFDE71449286800F01E
:101790008DFB40B96B6813B901232360CBE7042BA1
:1017A00005D0082B06D04FF0FF332360C3E7022398
:1017B0002360C0E703232360BDE72B68023B012BB6
:1017C00002D9AB680360B6E700230360B3E70020EB
:1017D0008CE700BF00ED00E00400FA05D027000808
:1017E00008B500F009F8024A024B9A6008BD00BF34
:1017F0000000000800ED00E0024B4FF000629A602C
:10180000704700BF00ED00E0224B9B6803F00C0323
:10181000042B14D0082B16D01BB11F4B1F4A1A6083
:1018200002E01D4B1D4A1A601A4B9B68C3F3031359
:101830001B4AD15C184A1368CB4013607047164BA3
:10184000184A1A60F0E7134B59685A6802F03F02D1
:1018500011F4800F13D0134BB3FBF2F30D4A52680F
:10186000C2F3881202FB03F30A4A5268C2F3014230
:1018700001325200B3FBF2F3074A1360D4E7074B7F
:10188000B3FBF2F3034A5268C2F3881202FB03F37C
:10189000EAE700BF003802400C0000200024F400FA
:1018A0001C29000800127A0030B595B0002401947C
:1018B000224B1A6C42F080521A641B6C03F0805366
:1018C0000193019B02941E4B1A6842F480421A60F5
:1018D0001B6803F480430293029B012308934FF497
:1018E000803309934FF480030F93082310934FF430
:1018F000A873119302251295072313930E9508A838
:10190000FFF70CF80F230393049505944FF4A053AD
:1019100006934FF480530793052103A8FFF7E0FADD
:10192000FFF7ECFB074BA3FB00308009FEF72EFE10
:101930000420FEF73FFE15B030BD00BF0038024066
:1019400000700040D34D621008B5FEF78FFDFFF721
:10195000ABFFFFF759FF08BD08B50A46014602482C
:10196000FFF72AFEFEE700BF2C2900080160426055
:101970000373012303FA02F282607047012800D04A
:1019800070474FF6FF739942FAD110B50E4C002301
:101990000C2203212046FFF7E9FF00230D2203213B
:1019A00004F11000FFF7E2FF00230E22032104F1EF
:1019B0002000FFF7DBFF00230F22032104F130009A
:1019C000FFF7D4FF10BD00BF6C02002010B582B03D
:1019D000002301930C4A116C41F004011164126C54
:1019E00002F004020192019A084C6360A360642231
:1019F000E260236163612046FFF740FC2046FFF769
:101A000085FB02B010BD00BF00380240100000206E
:101A100000B587B0002300930C4A116B41F0080118
:101A20001163126B02F008020092009A4FF4005208
:101A3000019201220292039304930223059301A9C8
:101A40000348FEF7D5FD07B05DF804FB00380240FF
:101A5000000C024010B5FEF709FDFFF7D9FFFFF7B4
:101A6000B5FF0A4B1B685C6A642C08D0C82CF8D1FF
:101A700000224FF400510648FEF734FFF1E701223F
:101A80004FF400510248FEF72DFFEFE71000002051
:101A9000000C024008B54FF6FF710120FFF76EFF02
:101AA00008BD7047034B1B681BB1024A1368013B1A
:101AB00013607047AC02002008B5FEF7F1FCFFF799
:101AC000F1FF08BD53B94AB9002908BF00281CBF5F
:101AD0004FF0FF314FF0FF3000F074B9ADF1080C5A
:101AE0006DE904CE00F006F8DDF804E0DDE902233C
:101AF00004B070472DE9F047089E0D46044688461D
:101B0000002B4DD18A42944668D9B2FA82F252B182
:101B100001FA02F3C2F1200120FA01F10CFA02FCF1
:101B200041EA030894404FEA1C45210CB8FBF5FE3E
:101B30001FFA8CF705FB1E8341EA03430EFB07F1F6
:101B400099420BD91CEB03030EF1FF3080F01E818C
:101B5000994240F21B81AEF1020E63445B1AA4B2BB
:101B6000B3FBF5F005FB103344EA034400FB07F731
:101B7000A7420AD91CEB040400F1FF3380F008816E
:101B8000A74240F2058164440238E41B40EA0E405B
:101B900000211EB1D4400023C6E90043BDE8F08710
:101BA0008B4208D9002E00F0EE800021C6E9000526
:101BB0000846BDE8F087B3FA83F100294AD1AB4269
:101BC00002D3824200F2F980841A65EB03030120FC
:101BD0009846002EE2D0C6E90048DFE702B9FFDEF2
:101BE000B2FA82F2002A40F09180A1EB0C054FEA94
:101BF0001C471FFA8CFE0121B5FBF7F307FB1350BE
:101C0000250C45EA00450EFB03F0A84208D91CEB61
:101C1000050503F1FF3802D2A84200F2CB8043460B
:101C20002D1AA4B2B5FBF7F007FB105544EA0544A2
:101C30000EFB00FEA64508D91CEB040400F1FF359D
:101C400002D2A64500F2BB802846A4EB0E0440EA6F
:101C500003409EE7C1F120078B4022FA07FC4CEAC3
:101C6000030C20FA07F405FA01F31C43FD404FEA88
:101C70001C4900FA01F3B5FBF9F8200C1FFA8CFEA1
:101C800009FB185540EA054508FB0EF0A84202FA88
:101C900001F20BD91CEB050508F1FF3A80F08880B2
:101CA000A84240F28580A8F1020865442D1AA4B22A
:101CB000B5FBF9F009FB105544EA054500FB0EFEA3
:101CC000AE4508D91CEB050500F1FF346CD2AE45DA
:101CD0006AD90238654440EA0840A0FB0294A5EBAB
:101CE0000E05A542C846A64656D353D05EB1B3EB07
:101CF000080265EB0E0505FA07F722FA01F3CD405D
:101D00001F43C6E900750021BDE8F087C2F120033A
:101D100020FA03F10CFA02FC25FA03F395400D4377
:101D20004FEA1C471FFA8CFEB3FBF7F107FB11309B
:101D30002B0C43EA004301FB0EF0984204FA02F434
:101D400008D91CEB030301F1FF382FD298422DD99B
:101D5000023963441B1AADB2B3FBF7F007FB103333
:101D600045EA034500FB0EF3AB4208D91CEB050521
:101D700000F1FF3816D2AB4214D902386544ED1A8F
:101D800040EA014138E73146304607E78646E5E656
:101D90001846FAE64B45A9D2B9EB020864EB0C0EE3
:101DA0000138A3E74046EAE7204694E74146D1E7F9
:101DB000D0467BE7023B654432E7084609E76444C6
:101DC000023842E7704700BF014B1868704700BFF8
:101DD0005000002070477047F8B5CD1C25F0030572
:101DE00008350C2D38BF0C25002D064601DBA94215
:101DF00003D90C2333600020F8BD00F09BF8214983
:101E00000A6814469CB9204F3B6823B921463046E6
:101E100000F03CF838602946304600F037F8431CA3
:101E200023D10C233360304600F08AF8E3E72368BF
:101E30005B1B17D40B2B03D923601C44256004E0E3
:101E40006368A2420CBF0B605360304600F078F824
:101E500004F10B00231D20F00700C21ACCD01B1A7E
:101E6000A350C9E722466468CCE7C41C24F00304ED
:101E7000A042E3D0211A304600F008F80130DDD14D
:101E8000CFE700BFB4020020B802002038B5064DED
:101E90000023044608462B60FFF774FA431C02D166
:101EA0002B6803B1236038BD3C01002010F8012BE2
:101EB00011F8013B012A28BF9A42F7D0D01A704787
:101EC00030B51446002C9BB005461A4605DA8B2324
:101ED00003604FF0FF301BB030BD4FF40273ADF81C
:101EE0000C3014BF04F1FF332346029305934FF6E1
:101EF000FF7300910491ADF80E3069461E9B00F00F
:101F0000CBF8431CBCBF8B232B60002CE3D0009B81
:101F100000221A70DFE7000007B5009313460A4657
:101F2000014603480068FFF7CBFF03B05DF804FBF0
:101F3000500000200148FFF74DBF00BFB002002055
:101F40000148FFF748BF00BFB002002038B5054682
:101F5000002941D051F8043C0C1F002BB8BFE418F5
:101F6000FFF7E8FF1D4A136833B963601460284621
:101F7000BDE83840FFF7E4BFA34208D92068211824
:101F80008B4201BF19685B6809182160EDE71A46AA
:101F90005B680BB1A342FAD911685018A0420BD16B
:101FA00020680144501883421160E0D118685B68D2
:101FB000536001441160DAE702D90C232B60D6E7A5
:101FC000206821188B4204BF19685B68636004BFF6
:101FD000091821605460CAE738BD00BFB402002070
:101FE0002DE9F0478E689E4282460C4690461F4679
:101FF00038D88A8912F4906F32D025680969A5EB28
:102000000109656905EB450505EBD57501334B44C1
:102010006D109D4238BF1D46530531D52946FFF747
:10202000DBFE064650B90C23CAF80030A38943F002
:102030004003A3814FF0FF30BDE8F08721694A4695
:1020400000F00EFBA38923F4906343F08003A38187
:10205000266165614E44A5EB09052660A5603E46F4
:10206000BE4200D93E4620683246414600F006FB9B
:10207000A3689B1BA3602368334423600020DBE735
:102080002A4600F015FB06460028E1D1216950469A
:10209000FFF75CFFC7E700002DE9F04F98468B89FA
:1020A0001B069DB007460D4614460ED50B6963B955
:1020B0004021FFF791FE2860286120B90C233B6086
:1020C0004FF0FF30D1E040236B61002309932023C0
:1020D0008DF82930CDF80C803023DFF8A8818DF8F9
:1020E0002A304FF0010923469A4613F8012B0AB112
:1020F000252AF9D1BAEB040B0BD05B4622462946C0
:102100003846FFF76DFF013000F0AA80099A5A4463
:1021100009929AF80030002B00F0A28000234FF0C3
:10212000FF32CDE905230AF1010A049307938DF8E4
:1021300053301A935446052214F8011B514800F0FD
:102140003FFA049AD8B9D00644BF20238DF8533003
:10215000110744BF2B238DF853309AF800302A2BF7
:1021600015D0079A544600204FF00A0C214611F86A
:10217000013B303B092B4ED9B0B1079214E0A0EBE4
:10218000080309FA03F313430493A246D2E7039B1F
:10219000191D1B680391002BBBBF5B4242F002027A
:1021A00007930793B8BF049223782E2B0CD1637842
:1021B0002A2B35D1039B1A1D1B680392002BB8BF35
:1021C0004FF0FF3302340593DFF8BCA021780322DF
:1021D000504600F0F5F940B14023A0EB0A0003FAA5
:1021E00000F0049B03430134049314F8011B2748B7
:1021F0008DF82810062200F0E3F9002838D0244B8F
:102200001BBB039B073323F0070308330393099B8E
:102210003344099367E70CFB02320C460120A5E723
:1022200000230134059319464FF00A0C204610F89C
:10223000012B303A092A03D9002BC5D00591C3E7F9
:102240000CFB012104460123F0E703AB00932A466F
:10225000104B04A93846AFF30080421C0646D6D185
:10226000AB895B063FF52CAF09981DB0BDE8F08F38
:1022700003AB00932A46074B04A9384600F07AF8CE
:10228000EBE700BFBC2A0008C22A0008C62A0008E3
:1022900000000000E11F00082DE9F04716469946AE
:1022A0008A680B69DDF820809342B8BF134633601B
:1022B00091F8432007460C460AB101333360236886
:1022C000990642BF336802333360256815F006056E
:1022D00006D104F1190AE36832689B1AAB4226DC86
:1022E00094F84320131E226818BF012392062BD4B2
:1022F00004F1430249463846C04701301ED02368E6
:10230000E568326803F00603042B08BFAD1AA36822
:1023100022690CBF25EAE57500259342C4BF9B1ACC
:10232000ED1800261A34B5421AD1002008E0012326
:10233000524649463846C047013003D14FF0FF307E
:10234000BDE8F0870135C6E7E1185A1C302081F856
:102350004300224494F8451082F843100233C7E743
:102360000123224649463846C0470130E6D00136AF
:10237000D9E700002DE9FF470F7E0C9D782F91468D
:1023800080460C469A4601F1430207D8622F0AD8CC
:10239000002F00F0D880582F00F0A38004F14205F0
:1023A00084F842703AE0A7F16303152BF6D801A137
:1023B00051F823F00D240008212400089D23000873
:1023C0009D2300089D2300089D2300082124000868
:1023D0009D2300089D2300089D2300089D230008DD
:1023E0002D250008512400080F2500089D23000812
:1023F0009D2300084F2500089D2300085124000854
:102400009D2300089D230008172500082B681A1D2E
:102410001B682A6004F1420584F842300123A3E0DE
:1024200020682968060601F104030AD50E682B60AE
:10243000002E03DA2D23764284F843305E480A23C7
:1024400019E00E682B6010F0400F18BF36B2EFE7AE
:102450002B682068191D2960010601D51E6802E05D
:102460004606FBD51E8854486F2F0CBF08230A234D
:10247000002184F843106568A560002DA2BF216883
:1024800021F0040121600EB9002D4DD01546B6FB98
:10249000F3F103FB1167C75D05F8017D3746BB42C9
:1024A0000E46F4D9082B0BD12368DE0708D5236923
:1024B00061689942DEBF302305F8013C05F1FF3524
:1024C000521B2261CDF800A04B4603AA214640468C
:1024D000FFF7E2FE01304CD14FF0FF3004B0BDE811
:1024E000F087354881F845702968236851F8046BF6
:1024F00029601D0614D5DF0744BF43F02003236085
:102500001EB9236823F0200323601023B0E723685B
:1025100043F0200323607823284884F84530E3E71C
:10252000590648BFB6B2E6E71546BBE72B682668F2
:102530006169181D286035061B6801D5196002E025
:102540007006FBD51980002323611546BAE72B6876
:102550001A1D2A601D6862680021284600F030F8C4
:1025600008B1401B606063682361002384F8433036
:10257000A8E723692A4649464046D0470130ABD0F8
:1025800023689B0713D4E068039B9842B8BF1846A2
:10259000A4E70123324649464046D04701309BD04C
:1025A0000135E36803995B1AAB42F2DCEBE70025E7
:1025B00004F11906F5E700BFCD2A0008DE2A00085D
:1025C00001F0FF01102A2BDB10F0070F08D010F8E4
:1025D000013B013A8B422DD010F0070F42B3F6D1E8
:1025E000F0B441EA012141EA014122F007047FF001
:1025F00000070023F0E80256083C85EA010586EA58
:10260000010685FA47F5A3FA87F586FA47F6A5FA93
:1026100087F68EB9EED1F0BC01F0FF0102F007029F
:1026200032B110F8013B013A83EA010313B1F8D14A
:102630000020704701387047002D06BF354603382B
:10264000073815F0010F07D1013015F4807F02BF64
:10265000013015F4C03F0130F0BC0138704700BFB5
:102660000A44914200F1FF3300D1704710B511F8D0
:10267000014B03F8014F9142F9D110BD884210B5CA
:1026800001EB020402D98442234607D8431EA1422B
:1026900008D011F8012B03F8012FF8E70244014696
:1026A0008A4200D110BD13F8014D02F8014DF7E741
:1026B000F8B5074614460E4621B9BDE8F840114664
:1026C000FFF78ABB22B9FFF741FC25462846F8BD33
:1026D00000F014F8A0420FD221463846FFF77CFBE9
:1026E00005460028F2D031462246FFF7B9FF3146B1
:1026F0003846FFF72BFCE9E73546E7E751F8043C9D
:10270000181F002BBCBF0B58C01870472E2E2F73FC
:10271000797374656D2F7372632F73746D333266C2
:10272000342D68616C2F73746D3332663478785F42
:1027300068616C5F636F727465782E6300000000DF
:102740002E2E2F73797374656D2F7372632F7374CC
:102750006D333266342D68616C2F73746D3332665D
:102760003478785F68616C5F6770696F2E63000012
:102770002E2E2F73797374656D2F7372632F73749C
:102780006D333266342D68616C2F73746D3332662D
:102790003478785F68616C5F7263632E6300000059
:1027A0002E2E2F73797374656D2F7372632F73746C
:1027B0006D333266342D68616C2F73746D333266FD
:1027C0003478785F68616C5F74696D2E6300000017
:1027D0003A747400537461636B206672616D653A7C
:1027E0000A000000205230203D2020253038580AB1
:1027F00000000000205231203D2020253038580AAA
:1028000000000000205232203D2020253038580A98
:1028100000000000205233203D2020253038580A87
:102820000000000020523132203D20253038580A67
:1028300000000000204C52203D2020253038580A4E
:1028400000000000205043203D2020253038580A49
:102850000000000020505352203D20253038580AF7
:10286000000000004653522F4641523A0A00000031
:102870002043465352203D2020253038580A00007E
:102880002048465352203D2020253038580A000069
:102890002044465352203D2020253038580A00005D
:1028A0002041465352203D2020253038580A000050
:1028B000204D4D464152203D20253038580A000019
:1028C0002042464152203D2020253038580A000041
:1028D0004D6973630A000000204C522F4558435F36
:1028E00052455455524E3D20253038580A000000BC
:1028F0005B486172644661756C745D0A000000009B
:102900005B4275734661756C745D0A005B5573615B
:1029100067654661756C745D0A0000000000000088
:1029200000000000010203040607080957726F6ED9
:102930006720706172616D65746572732076616C79
:1029400075653A2066696C65202573206F6E206C72
:10295000696E652025640D0A0000202020202020BB
:10296000202020282828282820202020202020203F
:10297000202020202020202020208810101010103F
:10298000101010101010101010100404040404048F
:102990000404040410101010101010414141414172
:1029A00041010101010101010101010101010101D7
:1029B0000101010101101010101010424242424268
:1029C00042020202020202020202020202020202A7
:1029D000020202020210101010200000000000008D
:1029E00000000000000000000000000000000000E7
:1029F00000000000000000000000000000000000D7
:102A000000000000000000000000000000000000C6
:102A100000000000000000000000000000000000B6
:102A200000000000000000000000000000000000A6
:102A30000000000000000000000000000000000096
:102A40000000000000000000000000000000000086
:102A50000000000000000000000000000000000076
:102A60000000000000000000000000000000000066
:102A70000000000000000000000000000000000056
:102A80000000000000000000000000000000000046
:102A90000000000000000000000000000000000036
:102AA0000000000000000000000000000000000026
:102AB000000000000000000000000000232D302B6B
:102AC0002000686C4C00656667454647003031322F
:102AD0003334353637383941424344454600303186
:0F2AE000323334353637383961626364656600E6
:082AF00004F0FF7F010000006B
:102AF8007856341201FFFFFF100000000024F40094
:102B08000008004000000000000000000000000075
:102B180000000000000000000000000000000000AD
:102B2800000000000000000000000000000000009D
:102B3800000000000000000000000000000000008D
:102B480054000020000000007C2A00089C2A00088D
:102B58005C2A0008000000000000000000000000DF
:102B6800000000000000000000000000000000005D
:102B7800000000000000000000000000000000004D
:102B8800000000000000000000000000000000003D
:102B9800000000000000000000000000000000002D
:082BA800000000003254769891
:040000050800018965
:00000001FF
